{
  "contractName": "DappToken",
  "abi": [
    {
      "constant": true,
      "inputs": [],
      "name": "totalSupply",
      "outputs": [
        {
          "name": "",
          "type": "uint256"
        }
      ],
      "payable": false,
      "stateMutability": "view",
      "type": "function"
    },
    {
      "inputs": [],
      "payable": false,
      "stateMutability": "nonpayable",
      "type": "constructor"
    }
  ],
  "bytecode": "0x608060405234801561001057600080fd5b50620f4240600081905550609e806100296000396000f300608060405260043610603f576000357c0100000000000000000000000000000000000000000000000000000000900463ffffffff16806318160ddd146044575b600080fd5b348015604f57600080fd5b506056606c565b6040518082815260200191505060405180910390f35b600054815600a165627a7a7230582003e5768c2d9b75e5494598969b746ea04db04f3698069437087902fc37346f750029",
  "source": "pragma solidity ^0.4.23;\r\n\r\n\r\ncontract DappToken {\r\n\r\n  uint public totalSupply;\r\n  constructor() public{\r\n    totalSupply = 1000000;\r\n  }\r\n\r\n}\r\n",
  "sourcePath": "D:\\Coding\\Learning\\Ethereum\\Tutorials\\Token\\contracts\\DappToken.sol",
  "compiler": {
    "name": "solc",
    "version": "0.4.24+commit.e67f0147.Emscripten.clang"
  },
  "schemaVersion": "2.0.1",
  "updatedAt": "2018-10-05T15:48:03.607Z"
}